{
  "contractName": "landRegistration",
  "abi": [
    {
      "inputs": [],
      "payable": false,
      "stateMutability": "nonpayable",
      "type": "constructor"
    },
    {
      "constant": true,
      "inputs": [
        {
          "internalType": "uint256",
          "name": "",
          "type": "uint256"
        }
      ],
      "name": "ids",
      "outputs": [
        {
          "internalType": "uint256",
          "name": "",
          "type": "uint256"
        }
      ],
      "payable": false,
      "stateMutability": "view",
      "type": "function"
    },
    {
      "constant": true,
      "inputs": [
        {
          "internalType": "uint256",
          "name": "",
          "type": "uint256"
        }
      ],
      "name": "land",
      "outputs": [
        {
          "internalType": "string",
          "name": "Address",
          "type": "string"
        },
        {
          "internalType": "address payable",
          "name": "CurrentOwner",
          "type": "address"
        },
        {
          "internalType": "uint256",
          "name": "marketValue",
          "type": "uint256"
        },
        {
          "internalType": "bool",
          "name": "isAvailable",
          "type": "bool"
        }
      ],
      "payable": false,
      "stateMutability": "view",
      "type": "function"
    },
    {
      "constant": true,
      "inputs": [
        {
          "internalType": "string",
          "name": "",
          "type": "string"
        }
      ],
      "name": "superAdmin",
      "outputs": [
        {
          "internalType": "address",
          "name": "",
          "type": "address"
        }
      ],
      "payable": false,
      "stateMutability": "view",
      "type": "function"
    },
    {
      "constant": false,
      "inputs": [
        {
          "internalType": "address",
          "name": "_superAdmin",
          "type": "address"
        },
        {
          "internalType": "string",
          "name": "_address",
          "type": "string"
        }
      ],
      "name": "addSuperAdmin",
      "outputs": [],
      "payable": false,
      "stateMutability": "nonpayable",
      "type": "function"
    },
    {
      "constant": false,
      "inputs": [
        {
          "internalType": "string",
          "name": "_address",
          "type": "string"
        },
        {
          "internalType": "address payable",
          "name": "_OwnerAddress",
          "type": "address"
        },
        {
          "internalType": "uint256",
          "name": "_marketValue",
          "type": "uint256"
        },
        {
          "internalType": "uint256",
          "name": "id",
          "type": "uint256"
        }
      ],
      "name": "Registration",
      "outputs": [
        {
          "internalType": "bool",
          "name": "",
          "type": "bool"
        }
      ],
      "payable": false,
      "stateMutability": "nonpayable",
      "type": "function"
    },
    {
      "constant": true,
      "inputs": [
        {
          "internalType": "uint256",
          "name": "id",
          "type": "uint256"
        }
      ],
      "name": "landInfoUser",
      "outputs": [
        {
          "internalType": "address",
          "name": "",
          "type": "address"
        },
        {
          "internalType": "uint256",
          "name": "",
          "type": "uint256"
        },
        {
          "internalType": "bool",
          "name": "",
          "type": "bool"
        }
      ],
      "payable": false,
      "stateMutability": "view",
      "type": "function"
    },
    {
      "constant": false,
      "inputs": [
        {
          "internalType": "uint256",
          "name": "property",
          "type": "uint256"
        }
      ],
      "name": "makeAvailable",
      "outputs": [],
      "payable": false,
      "stateMutability": "nonpayable",
      "type": "function"
    },
    {
      "constant": false,
      "inputs": [
        {
          "internalType": "uint256",
          "name": "property",
          "type": "uint256"
        }
      ],
      "name": "buyProperty",
      "outputs": [],
      "payable": true,
      "stateMutability": "payable",
      "type": "function"
    }
  ],
  "bytecode": "0x608060405234801561001057600080fd5b5033600260006101000a81548173ffffffffffffffffffffffffffffffffffffffff021916908373ffffffffffffffffffffffffffffffffffffffff160217905550610e82806100616000396000f3fe60806040526004361061007b5760003560e01c80639d01485f1161004e5780639d01485f146103c3578063ab05bae614610450578063baa39e0514610538578063fac333ac146105735761007b565b8063478df44c14610080578063480f8d0c146101885780636fa830a61461029c578063861e4656146102ca575b600080fd5b34801561008c57600080fd5b50610146600480360360208110156100a357600080fd5b81019080803590602001906401000000008111156100c057600080fd5b8201836020820111156100d257600080fd5b803590602001918460018302840111640100000000831117156100f457600080fd5b91908080601f016020809104026020016040519081016040528093929190818152602001838380828437600081840152601f19601f8201169050808301925050505050505091929192905050506105c2565b604051808273ffffffffffffffffffffffffffffffffffffffff1673ffffffffffffffffffffffffffffffffffffffff16815260200191505060405180910390f35b34801561019457600080fd5b50610282600480360360808110156101ab57600080fd5b81019080803590602001906401000000008111156101c857600080fd5b8201836020820111156101da57600080fd5b803590602001918460018302840111640100000000831117156101fc57600080fd5b91908080601f016020809104026020016040519081016040528093929190818152602001838380828437600081840152601f19601f820116905080830192505050505050509192919290803573ffffffffffffffffffffffffffffffffffffffff169060200190929190803590602001909291908035906020019092919050505061060b565b604051808215151515815260200191505060405180910390f35b6102c8600480360360208110156102b257600080fd5b8101908080359060200190929190505050610867565b005b3480156102d657600080fd5b50610303600480360360208110156102ed57600080fd5b8101908080359060200190929190505050610a66565b60405180806020018573ffffffffffffffffffffffffffffffffffffffff1673ffffffffffffffffffffffffffffffffffffffff16815260200184815260200183151515158152602001828103825286818151815260200191508051906020019080838360005b8381101561038557808201518184015260208101905061036a565b50505050905090810190601f1680156103b25780820380516001836020036101000a031916815260200191505b509550505050505060405180910390f35b3480156103cf57600080fd5b506103fc600480360360208110156103e657600080fd5b8101908080359060200190929190505050610b5b565b604051808473ffffffffffffffffffffffffffffffffffffffff1673ffffffffffffffffffffffffffffffffffffffff16815260200183815260200182151515158152602001935050505060405180910390f35b34801561045c57600080fd5b506105366004803603604081101561047357600080fd5b81019080803573ffffffffffffffffffffffffffffffffffffffff169060200190929190803590602001906401000000008111156104b057600080fd5b8201836020820111156104c257600080fd5b803590602001918460018302840111640100000000831117156104e457600080fd5b91908080601f016020809104026020016040519081016040528093929190818152602001838380828437600081840152601f19601f820116905080830192505050505050509192919290505050610be2565b005b34801561054457600080fd5b506105716004803603602081101561055b57600080fd5b8101908080359060200190929190505050610ce8565b005b34801561057f57600080fd5b506105ac6004803603602081101561059657600080fd5b8101908080359060200190929190505050610d87565b6040518082815260200191505060405180910390f35b6003818051602081018201805184825260208301602085012081835280955050505050506000915054906101000a900473ffffffffffffffffffffffffffffffffffffffff1681565b60003373ffffffffffffffffffffffffffffffffffffffff166003866040518082805190602001908083835b6020831061065a5780518252602082019150602081019050602083039250610637565b6001836020036101000a038019825116818451168082178552505050505050905001915050908152602001604051809103902060009054906101000a900473ffffffffffffffffffffffffffffffffffffffff1673ffffffffffffffffffffffffffffffffffffffff16148061071d57503373ffffffffffffffffffffffffffffffffffffffff16600260009054906101000a900473ffffffffffffffffffffffffffffffffffffffff1673ffffffffffffffffffffffffffffffffffffffff16145b61072657600080fd5b84600160008481526020019081526020016000206000019080519060200190610750929190610da8565b50836001600084815260200190815260200160002060010160006101000a81548173ffffffffffffffffffffffffffffffffffffffff021916908373ffffffffffffffffffffffffffffffffffffffff160217905550826001600084815260200190815260200160002060020181905550600180600084815260200190815260200160002060030160006101000a81548160ff021916908315150217905550600460008573ffffffffffffffffffffffffffffffffffffffff1673ffffffffffffffffffffffffffffffffffffffff16815260200190815260200160002060000182908060018154018082558091505090600182039060005260206000200160009091929091909150555060019050949350505050565b600115156001600083815260200190815260200160002060030160009054906101000a900460ff1615151461089b57600080fd5b600a6001600083815260200190815260200160002060020154816108bb57fe5b046001600083815260200190815260200160002060020154013410156108e057600080fd5b6001600082815260200190815260200160002060010160009054906101000a900473ffffffffffffffffffffffffffffffffffffffff1673ffffffffffffffffffffffffffffffffffffffff166108fc60016000848152602001908152602001600020600201549081150290604051600060405180830381858888f19350505050158015610972573d6000803e3d6000fd5b50336001600083815260200190815260200160002060010160006101000a81548173ffffffffffffffffffffffffffffffffffffffff021916908373ffffffffffffffffffffffffffffffffffffffff16021790555060006001600083815260200190815260200160002060030160006101000a81548160ff021916908315150217905550600460003373ffffffffffffffffffffffffffffffffffffffff1673ffffffffffffffffffffffffffffffffffffffff16815260200190815260200160002060000181908060018154018082558091505090600182039060005260206000200160009091929091909150555050565b6001602052806000526040600020600091509050806000018054600181600116156101000203166002900480601f016020809104026020016040519081016040528092919081815260200182805460018160011615610100020316600290048015610b125780601f10610ae757610100808354040283529160200191610b12565b820191906000526020600020905b815481529060010190602001808311610af557829003601f168201915b5050505050908060010160009054906101000a900473ffffffffffffffffffffffffffffffffffffffff16908060020154908060030160009054906101000a900460ff16905084565b60008060006001600085815260200190815260200160002060010160009054906101000a900473ffffffffffffffffffffffffffffffffffffffff1660016000868152602001908152602001600020600201546001600087815260200190815260200160002060030160009054906101000a900460ff168292509250925092509193909250565b600260009054906101000a900473ffffffffffffffffffffffffffffffffffffffff1673ffffffffffffffffffffffffffffffffffffffff163373ffffffffffffffffffffffffffffffffffffffff1614610c3c57600080fd5b816003826040518082805190602001908083835b60208310610c735780518252602082019150602081019050602083039250610c50565b6001836020036101000a038019825116818451168082178552505050505050905001915050908152602001604051809103902060006101000a81548173ffffffffffffffffffffffffffffffffffffffff021916908373ffffffffffffffffffffffffffffffffffffffff1602179055505050565b3373ffffffffffffffffffffffffffffffffffffffff166001600083815260200190815260200160002060010160009054906101000a900473ffffffffffffffffffffffffffffffffffffffff1673ffffffffffffffffffffffffffffffffffffffff1614610d5657600080fd5b600180600083815260200190815260200160002060030160006101000a81548160ff02191690831515021790555050565b60008181548110610d9457fe5b906000526020600020016000915090505481565b828054600181600116156101000203166002900490600052602060002090601f016020900481019282601f10610de957805160ff1916838001178555610e17565b82800160010185558215610e17579182015b82811115610e16578251825591602001919060010190610dfb565b5b509050610e249190610e28565b5090565b610e4a91905b80821115610e46576000816000905550600101610e2e565b5090565b9056fea265627a7a72315820edab2b500a4df2f8794a1b9a70e64c0d9355e7a5fd2de9fed45d2c12d116505d64736f6c63430005100032",
  "source": "pragma solidity >=0.4.0;\n\n//Land Details\ncontract landRegistration{\n    struct landDetails{\n        string Address;\n        address payable CurrentOwner;\n        uint marketValue;\n        bool isAvailable;\n        // address requester;\n        // reqStatus requestStatus;\n\n    }\n    \n\n    //request status\n    enum reqStatus {Default,pending,reject,approved}\n    \n    uint[] public ids;\n\n\n    //profile of a client\n    struct profiles{\n        uint[] assetList;   \n        }\n\n \n    mapping(uint => landDetails) public land;\n    address owner;\n    mapping(string => address) public superAdmin;\n    mapping(address => profiles) profile;\n    \n    //contract owner\n    constructor() public {\n        owner = msg.sender;\n    }\n    modifier onlyOwner {\n        require(msg.sender == owner);\n        _;\n    }\n    \n    //adding village admins\n    function addSuperAdmin(address _superAdmin,string memory _address ) onlyOwner public {\n        superAdmin[_address]=_superAdmin;\n    }\n    //Registration of land details.\n    function Registration(\n        string memory _address, address payable _OwnerAddress,uint _marketValue, uint id\n        ) public returns(bool) {\n        require(superAdmin[_address] == msg.sender || owner == msg.sender);\n        land[id].Address= _address;\n        land[id].CurrentOwner = _OwnerAddress;\n        land[id].marketValue = _marketValue;\n        land[id].isAvailable =true;\n        profile[_OwnerAddress].assetList.push(id);\n        return true;\n    }\n\n        //to view details of land for the buyer\n        function landInfoUser(uint id) public view returns(address,uint,bool){\n                return(land[id].CurrentOwner,land[id].marketValue,land[id].isAvailable);        \n    }\n\n    // // to compute id for a land.\n    // function computeId(string memory _state,string memory _district,string memory _village,uint _surveyNumber) public view returns(uint){\n    //     return uint(keccak256(abi.encodePacked(_state,_district,_village,_surveyNumber)))%10000000000000;\n    // }\n\n    // //push a request to the land owner\n    // function requstToLandOwner(uint id) public {\n    //     require(land[id].isAvailable);\n    //     land[id].requester=msg.sender;\n    //     land[id].isAvailable=false;\n    //     land[id].requestStatus = reqStatus.pending; //changes the status to pending.\n    // }\n    //will show assets of the function caller \n    \n    // function viewAssets()public view returns(uint[] memory){\n    //     return (profile[msg.sender].assetList);\n    // }\n\n    //viewing request for the lands\n    // function viewRequest(uint property)public view returns(address){\n    //     return(land[property].requester);\n    // }\n    //processing request for the land by accepting or rejecting\n    // function processRequest(uint property,reqStatus status)public {\n    //     require(land[property].CurrentOwner == msg.sender);\n    //     land[property].requestStatus=status;\n    //     if(status == reqStatus.reject){\n    //         land[property].requester = address(0);\n    //         land[property].requestStatus = reqStatus.Default;\n    //     }\n    // }\n    //availing land for sale.\n    function makeAvailable(uint property)public{\n        require(land[property].CurrentOwner == msg.sender);\n        land[property].isAvailable=true;\n    } \n    //buying the approved property\n    function buyProperty(uint property)public payable{\n        require(land[property].isAvailable == true);\n        require(msg.value >= (land[property].marketValue+((land[property].marketValue)/10)));\n        land[property].CurrentOwner.transfer(land[property].marketValue);\n        land[property].CurrentOwner=msg.sender;\n        land[property].isAvailable=false;\n        profile[msg.sender].assetList.push(property); //adds the property to the asset list of the new owner.\n        \n    }\n}",
  "sourcePath": "c:/Users/HP/Land-Ownership/contracts/landRegistration.sol",
  "compiler": {
    "name": "solc",
    "version": "0.5.16+commit.9c3226ce.Emscripten.clang"
  },
  "schemaVersion": "3.2.2",
  "updatedAt": "2020-08-20T20:34:20.984Z",
  "networkType": "ethereum",
  "devdoc": {
    "methods": {}
  },
  "userdoc": {
    "methods": {}
  }
}